{"abi":[{"type":"constructor","inputs":[{"name":"subscriptionId","type":"uint64","internalType":"uint64"},{"name":"vrfCoordinator","type":"address","internalType":"address"},{"name":"_keyHash","type":"bytes32","internalType":"bytes32"}],"stateMutability":"nonpayable"},{"type":"function","name":"COORDINATOR","inputs":[],"outputs":[{"name":"","type":"address","internalType":"contract VRFCoordinatorV2Interface"}],"stateMutability":"view"},{"type":"function","name":"callbackGasLimit","inputs":[],"outputs":[{"name":"","type":"uint32","internalType":"uint32"}],"stateMutability":"view"},{"type":"function","name":"keyHash","inputs":[],"outputs":[{"name":"","type":"bytes32","internalType":"bytes32"}],"stateMutability":"view"},{"type":"function","name":"numWords","inputs":[],"outputs":[{"name":"","type":"uint32","internalType":"uint32"}],"stateMutability":"view"},{"type":"function","name":"rawFulfillRandomWords","inputs":[{"name":"requestId","type":"uint256","internalType":"uint256"},{"name":"randomWords","type":"uint256[]","internalType":"uint256[]"}],"outputs":[],"stateMutability":"nonpayable"},{"type":"function","name":"requestConfirmations","inputs":[],"outputs":[{"name":"","type":"uint16","internalType":"uint16"}],"stateMutability":"view"},{"type":"function","name":"requestRandomNumber","inputs":[],"outputs":[{"name":"requestId","type":"uint256","internalType":"uint256"}],"stateMutability":"nonpayable"},{"type":"function","name":"s_owner","inputs":[],"outputs":[{"name":"","type":"address","internalType":"address"}],"stateMutability":"view"},{"type":"function","name":"s_randomWord","inputs":[],"outputs":[{"name":"","type":"uint256","internalType":"uint256"}],"stateMutability":"view"},{"type":"function","name":"s_requestId","inputs":[],"outputs":[{"name":"","type":"uint256","internalType":"uint256"}],"stateMutability":"view"},{"type":"function","name":"s_subscriptionId","inputs":[],"outputs":[{"name":"","type":"uint64","internalType":"uint64"}],"stateMutability":"view"},{"type":"error","name":"OnlyCoordinatorCanFulfill","inputs":[{"name":"have","type":"address","internalType":"address"},{"name":"want","type":"address","internalType":"address"}]}],"bytecode":{"object":"0x60a0604052600280546001600160501b03191666010003000186a0179055348015610028575f5ffd5b5060405161062e38038061062e8339810160408190526100479161009b565b6001600160a01b039091166080819052600580546001600160a01b031916331790555f80546001600160401b03909416600160a01b026001600160e01b0319909416909117929092179091556001556100f1565b5f5f5f606084860312156100ad575f5ffd5b83516001600160401b03811681146100c3575f5ffd5b60208501519093506001600160a01b03811681146100df575f5ffd5b80925050604084015190509250925092565b60805161051e6101105f395f81816101d8015261021a015261051e5ff3fe608060405234801561000f575f5ffd5b50600436106100a6575f3560e01c80638678a7b21161006e5780638678a7b2146101445780638ac000211461014c578063b0fb162f1461017f578063e3978240146101a8578063e89e106a146101bb578063fd210fd9146101c4575f5ffd5b80631fe543e3146100aa57806324f74697146100bf5780633b2bcbf1146100e957806361728f39146101135780637ccfd7fc1461012a575b5f5ffd5b6100bd6100b83660046103e9565b6101cd565b005b6002546100cf9063ffffffff1681565b60405163ffffffff90911681526020015b60405180910390f35b5f546100fb906001600160a01b031681565b6040516001600160a01b0390911681526020016100e0565b61011c60015481565b6040519081526020016100e0565b6002546100cf906601000000000000900463ffffffff1681565b61011c61025a565b5f5461016690600160a01b900467ffffffffffffffff1681565b60405167ffffffffffffffff90911681526020016100e0565b60025461019590640100000000900461ffff1681565b60405161ffff90911681526020016100e0565b6005546100fb906001600160a01b031681565b61011c60045481565b61011c60035481565b336001600160a01b037f0000000000000000000000000000000000000000000000000000000000000000161461024c5760405163073e64fd60e21b81523360048201526001600160a01b037f00000000000000000000000000000000000000000000000000000000000000001660248201526044015b60405180910390fd5b6102568282610370565b5050565b6005545f906001600160a01b031633146102af5760405162461bcd60e51b815260206004820152601660248201527513db9b1e481bdddb995c8818d85b881c995c5d595cdd60521b6044820152606401610243565b5f546001546002546040516305d3b1d360e41b81526004810192909252600160a01b830467ffffffffffffffff166024830152640100000000810461ffff16604483015263ffffffff808216606484015266010000000000009091041660848201526001600160a01b0390911690635d3b1d309060a4016020604051808303815f875af1158015610342573d5f5f3e3d5ffd5b505050506040513d601f19601f8201168201806040525081019061036691906104bd565b6004819055919050565b60045482146103b15760405162461bcd60e51b815260206004820152600d60248201526c15dc9bdb99c81c995c5d595cdd609a1b6044820152606401610243565b805f815181106103c3576103c36104d4565b60200260200101516003819055505050565b634e487b7160e01b5f52604160045260245ffd5b5f5f604083850312156103fa575f5ffd5b82359150602083013567ffffffffffffffff811115610417575f5ffd5b8301601f81018513610427575f5ffd5b803567ffffffffffffffff811115610441576104416103d5565b8060051b604051601f19603f830116810181811067ffffffffffffffff8211171561046e5761046e6103d5565b60405291825260208184018101929081018884111561048b575f5ffd5b6020850194505b838510156104ae57843580825260209586019590935001610492565b50809450505050509250929050565b5f602082840312156104cd575f5ffd5b5051919050565b634e487b7160e01b5f52603260045260245ffdfea26469706673582212203a4bfcb1a6618219f1be53f4d870a854480983f2c69814cc3894d7df2470345864736f6c634300081c0033","linkReferences":{}},"methodIdentifiers":{"COORDINATOR()":"3b2bcbf1","callbackGasLimit()":"24f74697","keyHash()":"61728f39","numWords()":"7ccfd7fc","rawFulfillRandomWords(uint256,uint256[])":"1fe543e3","requestConfirmations()":"b0fb162f","requestRandomNumber()":"8678a7b2","s_owner()":"e3978240","s_randomWord()":"fd210fd9","s_requestId()":"e89e106a","s_subscriptionId()":"8ac00021"},"id":24}