{"abi":[{"type":"constructor","inputs":[{"name":"_baseFee","type":"uint96","internalType":"uint96"},{"name":"_gasPriceLink","type":"uint96","internalType":"uint96"}],"stateMutability":"nonpayable"},{"type":"function","name":"BASE_FEE","inputs":[],"outputs":[{"name":"","type":"uint96","internalType":"uint96"}],"stateMutability":"view"},{"type":"function","name":"GAS_PRICE_LINK","inputs":[],"outputs":[{"name":"","type":"uint96","internalType":"uint96"}],"stateMutability":"view"},{"type":"function","name":"MAX_CONSUMERS","inputs":[],"outputs":[{"name":"","type":"uint16","internalType":"uint16"}],"stateMutability":"view"},{"type":"function","name":"acceptOwnership","inputs":[],"outputs":[],"stateMutability":"nonpayable"},{"type":"function","name":"acceptSubscriptionOwnerTransfer","inputs":[{"name":"","type":"uint64","internalType":"uint64"}],"outputs":[],"stateMutability":"pure"},{"type":"function","name":"addConsumer","inputs":[{"name":"_subId","type":"uint64","internalType":"uint64"},{"name":"_consumer","type":"address","internalType":"address"}],"outputs":[],"stateMutability":"nonpayable"},{"type":"function","name":"cancelSubscription","inputs":[{"name":"_subId","type":"uint64","internalType":"uint64"},{"name":"_to","type":"address","internalType":"address"}],"outputs":[],"stateMutability":"nonpayable"},{"type":"function","name":"consumerIsAdded","inputs":[{"name":"_subId","type":"uint64","internalType":"uint64"},{"name":"_consumer","type":"address","internalType":"address"}],"outputs":[{"name":"","type":"bool","internalType":"bool"}],"stateMutability":"view"},{"type":"function","name":"createSubscription","inputs":[],"outputs":[{"name":"_subId","type":"uint64","internalType":"uint64"}],"stateMutability":"nonpayable"},{"type":"function","name":"fulfillRandomWords","inputs":[{"name":"_requestId","type":"uint256","internalType":"uint256"},{"name":"_consumer","type":"address","internalType":"address"}],"outputs":[],"stateMutability":"nonpayable"},{"type":"function","name":"fulfillRandomWordsWithOverride","inputs":[{"name":"_requestId","type":"uint256","internalType":"uint256"},{"name":"_consumer","type":"address","internalType":"address"},{"name":"_words","type":"uint256[]","internalType":"uint256[]"}],"outputs":[],"stateMutability":"nonpayable"},{"type":"function","name":"fundSubscription","inputs":[{"name":"_subId","type":"uint64","internalType":"uint64"},{"name":"_amount","type":"uint96","internalType":"uint96"}],"outputs":[],"stateMutability":"nonpayable"},{"type":"function","name":"getConfig","inputs":[],"outputs":[{"name":"minimumRequestConfirmations","type":"uint16","internalType":"uint16"},{"name":"maxGasLimit","type":"uint32","internalType":"uint32"},{"name":"stalenessSeconds","type":"uint32","internalType":"uint32"},{"name":"gasAfterPaymentCalculation","type":"uint32","internalType":"uint32"}],"stateMutability":"pure"},{"type":"function","name":"getFallbackWeiPerUnitLink","inputs":[],"outputs":[{"name":"","type":"int256","internalType":"int256"}],"stateMutability":"pure"},{"type":"function","name":"getFeeConfig","inputs":[],"outputs":[{"name":"fulfillmentFlatFeeLinkPPMTier1","type":"uint32","internalType":"uint32"},{"name":"fulfillmentFlatFeeLinkPPMTier2","type":"uint32","internalType":"uint32"},{"name":"fulfillmentFlatFeeLinkPPMTier3","type":"uint32","internalType":"uint32"},{"name":"fulfillmentFlatFeeLinkPPMTier4","type":"uint32","internalType":"uint32"},{"name":"fulfillmentFlatFeeLinkPPMTier5","type":"uint32","internalType":"uint32"},{"name":"reqsForTier2","type":"uint24","internalType":"uint24"},{"name":"reqsForTier3","type":"uint24","internalType":"uint24"},{"name":"reqsForTier4","type":"uint24","internalType":"uint24"},{"name":"reqsForTier5","type":"uint24","internalType":"uint24"}],"stateMutability":"pure"},{"type":"function","name":"getRequestConfig","inputs":[],"outputs":[{"name":"","type":"uint16","internalType":"uint16"},{"name":"","type":"uint32","internalType":"uint32"},{"name":"","type":"bytes32[]","internalType":"bytes32[]"}],"stateMutability":"pure"},{"type":"function","name":"getSubscription","inputs":[{"name":"_subId","type":"uint64","internalType":"uint64"}],"outputs":[{"name":"balance","type":"uint96","internalType":"uint96"},{"name":"reqCount","type":"uint64","internalType":"uint64"},{"name":"owner","type":"address","internalType":"address"},{"name":"consumers","type":"address[]","internalType":"address[]"}],"stateMutability":"view"},{"type":"function","name":"owner","inputs":[],"outputs":[{"name":"","type":"address","internalType":"address"}],"stateMutability":"view"},{"type":"function","name":"pendingRequestExists","inputs":[{"name":"","type":"uint64","internalType":"uint64"}],"outputs":[{"name":"","type":"bool","internalType":"bool"}],"stateMutability":"pure"},{"type":"function","name":"removeConsumer","inputs":[{"name":"_subId","type":"uint64","internalType":"uint64"},{"name":"_consumer","type":"address","internalType":"address"}],"outputs":[],"stateMutability":"nonpayable"},{"type":"function","name":"requestRandomWords","inputs":[{"name":"_keyHash","type":"bytes32","internalType":"bytes32"},{"name":"_subId","type":"uint64","internalType":"uint64"},{"name":"_minimumRequestConfirmations","type":"uint16","internalType":"uint16"},{"name":"_callbackGasLimit","type":"uint32","internalType":"uint32"},{"name":"_numWords","type":"uint32","internalType":"uint32"}],"outputs":[{"name":"","type":"uint256","internalType":"uint256"}],"stateMutability":"nonpayable"},{"type":"function","name":"requestSubscriptionOwnerTransfer","inputs":[{"name":"","type":"uint64","internalType":"uint64"},{"name":"","type":"address","internalType":"address"}],"outputs":[],"stateMutability":"pure"},{"type":"function","name":"setConfig","inputs":[],"outputs":[],"stateMutability":"nonpayable"},{"type":"function","name":"transferOwnership","inputs":[{"name":"to","type":"address","internalType":"address"}],"outputs":[],"stateMutability":"nonpayable"},{"type":"event","name":"ConfigSet","inputs":[],"anonymous":false},{"type":"event","name":"ConsumerAdded","inputs":[{"name":"subId","type":"uint64","indexed":true,"internalType":"uint64"},{"name":"consumer","type":"address","indexed":false,"internalType":"address"}],"anonymous":false},{"type":"event","name":"ConsumerRemoved","inputs":[{"name":"subId","type":"uint64","indexed":true,"internalType":"uint64"},{"name":"consumer","type":"address","indexed":false,"internalType":"address"}],"anonymous":false},{"type":"event","name":"OwnershipTransferRequested","inputs":[{"name":"from","type":"address","indexed":true,"internalType":"address"},{"name":"to","type":"address","indexed":true,"internalType":"address"}],"anonymous":false},{"type":"event","name":"OwnershipTransferred","inputs":[{"name":"from","type":"address","indexed":true,"internalType":"address"},{"name":"to","type":"address","indexed":true,"internalType":"address"}],"anonymous":false},{"type":"event","name":"RandomWordsFulfilled","inputs":[{"name":"requestId","type":"uint256","indexed":true,"internalType":"uint256"},{"name":"outputSeed","type":"uint256","indexed":false,"internalType":"uint256"},{"name":"payment","type":"uint96","indexed":false,"internalType":"uint96"},{"name":"success","type":"bool","indexed":false,"internalType":"bool"}],"anonymous":false},{"type":"event","name":"RandomWordsRequested","inputs":[{"name":"keyHash","type":"bytes32","indexed":true,"internalType":"bytes32"},{"name":"requestId","type":"uint256","indexed":false,"internalType":"uint256"},{"name":"preSeed","type":"uint256","indexed":false,"internalType":"uint256"},{"name":"subId","type":"uint64","indexed":true,"internalType":"uint64"},{"name":"minimumRequestConfirmations","type":"uint16","indexed":false,"internalType":"uint16"},{"name":"callbackGasLimit","type":"uint32","indexed":false,"internalType":"uint32"},{"name":"numWords","type":"uint32","indexed":false,"internalType":"uint32"},{"name":"sender","type":"address","indexed":true,"internalType":"address"}],"anonymous":false},{"type":"event","name":"SubscriptionCanceled","inputs":[{"name":"subId","type":"uint64","indexed":true,"internalType":"uint64"},{"name":"to","type":"address","indexed":false,"internalType":"address"},{"name":"amount","type":"uint256","indexed":false,"internalType":"uint256"}],"anonymous":false},{"type":"event","name":"SubscriptionCreated","inputs":[{"name":"subId","type":"uint64","indexed":true,"internalType":"uint64"},{"name":"owner","type":"address","indexed":false,"internalType":"address"}],"anonymous":false},{"type":"event","name":"SubscriptionFunded","inputs":[{"name":"subId","type":"uint64","indexed":true,"internalType":"uint64"},{"name":"oldBalance","type":"uint256","indexed":false,"internalType":"uint256"},{"name":"newBalance","type":"uint256","indexed":false,"internalType":"uint256"}],"anonymous":false},{"type":"error","name":"InsufficientBalance","inputs":[]},{"type":"error","name":"InvalidConsumer","inputs":[]},{"type":"error","name":"InvalidRandomWords","inputs":[]},{"type":"error","name":"InvalidSubscription","inputs":[]},{"type":"error","name":"MustBeSubOwner","inputs":[{"name":"owner","type":"address","internalType":"address"}]},{"type":"error","name":"Reentrant","inputs":[]},{"type":"error","name":"TooManyConsumers","inputs":[]}],"bytecode":{"object":"0x60e0604052606460c0819052600160045560055534801561001e575f5ffd5b50604051611c1c380380611c1c83398101604081905261003d9161024d565b33805f816100925760405162461bcd60e51b815260206004820152601860248201527f43616e6e6f7420736574206f776e657220746f207a65726f000000000000000060448201526064015b60405180910390fd5b5f80546001600160a01b0319166001600160a01b03848116919091179091558116156100c1576100c1816100e6565b5050506001600160601b03808316608052811660a0526100df61018e565b505061027e565b336001600160a01b0382160361013e5760405162461bcd60e51b815260206004820152601760248201527f43616e6e6f74207472616e7366657220746f2073656c660000000000000000006044820152606401610089565b600180546001600160a01b0319166001600160a01b038381169182179092555f8054604051929316917fed8889f560326eb138920d842192f0eb3dd22b4f139c87a2c57538e05bae12789190a350565b6101966101d7565b604080516020810182525f908190526002805460ff1916905590517f4b2974a542484cba2783812ff8033f7fc682cac2fe0905c28c5e27869b3155be9190a1565b5f546001600160a01b031633146102305760405162461bcd60e51b815260206004820152601660248201527f4f6e6c792063616c6c61626c65206279206f776e6572000000000000000000006044820152606401610089565b565b80516001600160601b0381168114610248575f5ffd5b919050565b5f5f6040838503121561025e575f5ffd5b61026783610232565b915061027560208401610232565b90509250929050565b60805160a05160c05161195f6102bd5f395f81816102610152610a7d01525f818161032c01526106c101525f81816101c30152610704015261195f5ff3fe608060405234801561000f575f5ffd5b5060043610610152575f3560e01c80638b673e7a116100bf578063afc69b5311610079578063afc69b5314610371578063c3f909d414610384578063d7ae1d30146103af578063e82ad7d4146103c2578063ed5eb06d146103e5578063f2fde38b146103f8575f5ffd5b80638b673e7a146102d25780638da5cb5b146102da5780639f87fad7146102f4578063a21a23e414610307578063a410347f14610327578063a47c76961461034e575f5ffd5b80635fbbc0d2116101105780635fbbc0d21461021057806364d51a2a1461025c5780637341c10c1461029657806379ba5097146102a9578063808974ff146102b157806382359740146102c4575f5ffd5b80620122911461015657806304c357cb1461017f57806308e3898e14610194578063356dac71146101a75780633d18651e146101be5780635d3b1d30146101fd575b5f5ffd5b604080515f8152602081019182905261017691600391621e84809161148a565b60405180910390f35b61019261018d366004611519565b61040b565b005b6101926101a236600461155e565b61044a565b660e35fa931a00005b604051908152602001610176565b6101e57f000000000000000000000000000000000000000000000000000000000000000081565b6040516001600160601b039091168152602001610176565b6101b061020b366004611651565b610849565b60408051620186a0808252602082018190529181018290526060810182905260808101919091525f60a0820181905260c0820181905260e0820181905261010082015261012001610176565b6102837f000000000000000000000000000000000000000000000000000000000000000081565b60405161ffff9091168152602001610176565b6101926102a4366004611519565b6109eb565b610192610b49565b6101926102bf3660046116b3565b610bf2565b61019261018d3660046116d4565b610192610c35565b5f546040516001600160a01b039091168152602001610176565b610192610302366004611519565b610c7e565b61030f610ea3565b6040516001600160401b039091168152602001610176565b6101e57f000000000000000000000000000000000000000000000000000000000000000081565b61036161035c3660046116d4565b610f71565b60405161017694939291906116f4565b61019261037f366004611774565b611059565b6040805160048152622625a06020820152610a8c918101919091526182056060820152608001610176565b6101926103bd366004611519565b611153565b6103d56103d03660046116d4565b611275565b6040519015158152602001610176565b6103d56103f3366004611519565b6112b1565b6101926104063660046117b4565b61137a565b60405162461bcd60e51b815260206004820152600f60248201526e1b9bdd081a5b5c1b195b595b9d1959608a1b60448201526064015b60405180910390fd5b5f5a5f858152600860205260408120549192506001600160401b0390911690036104ac5760405162461bcd60e51b81526020600482015260136024820152721b9bdb995e1a5cdd195b9d081c995c5d595cdd606a1b6044820152606401610441565b5f848152600860209081526040808320815160608101835290546001600160401b038116825263ffffffff600160401b8204811694830194909452600160601b90049092169082015283519091036105b757806040015163ffffffff166001600160401b038111156105205761052061154a565b604051908082528060200260200182016040528015610549578160200160208202803683370190505b5092505f5b816040015163ffffffff168110156105b1576040805160208101889052908101829052606001604051602081830303815290604052805190602001205f1c84828151811061059e5761059e6117cd565b602090810291909101015260010161054e565b506105e2565b806040015163ffffffff168351146105e257604051631f9efadb60e11b815260040160405180910390fd5b5f5f631fe543e360e01b87866040516024016105ff9291906117e1565b60408051601f19818403018152918152602080830180516001600160e01b03166001600160e01b0319909516949094179093526002805460ff191660011790559185015191519092505f916001600160a01b0389169163ffffffff9091169061066990859061182e565b5f604051808303815f8787f1925050503d805f81146106a3576040519150601f19603f3d011682016040523d82523d5f602084013e6106a8565b606091505b50506002805460ff1916905590505f6001600160601b037f0000000000000000000000000000000000000000000000000000000000000000165a6106ec9088611858565b6106f6919061186b565b610729906001600160601b037f000000000000000000000000000000000000000000000000000000000000000016611882565b85516001600160401b03165f908152600660205260409020549091506001600160601b03808316600160a01b90920416101561077857604051631e9acf1760e31b815260040160405180910390fd5b84516001600160401b03165f90815260066020526040902080548291906014906107b3908490600160a01b90046001600160601b0316611895565b82546101009290920a6001600160601b038181021990931691831602179091555f8b81526008602090815260409182902080546fffffffffffffffffffffffffffffffff1916905581518d815292851690830152841515908201528a91507f7dffc5ae5ee4e2e4df1651cf6ad329a73cebdb728f37ea0187b9b17e036756e49060600160405180910390a2505050505050505050565b6002545f9060ff161561086f5760405163769dd35360e11b815260040160405180910390fd5b843361087b82826112b1565b610898576040516371e8313760e01b815260040160405180910390fd5b6001600160401b0387165f908152600660205260409020546001600160a01b03166108d657604051630fb532db60e11b815260040160405180910390fd5b600480545f91826108e6836118b4565b90915550600580549192505f9190826108fe836118b4565b9091555060408051606080820183526001600160401b038d811680845263ffffffff8d811660208087018281528f8416888a018181525f8e8152600885528b902099518a54935191518716600160601b0263ffffffff60601b1992909716600160401b026bffffffffffffffffffffffff19909416981697909717919091179590951692909217909555855189815290810187905261ffff8f16818701529283019390935260808201529151929350339290918d917f63373d1c4696214b898952999c9aaec57dac1ee2723cec59bea6888f489a97729160a0908290030190a45098975050505050505050565b6001600160401b0382165f9081526006602052604090205482906001600160a01b031680610a2c57604051630fb532db60e11b815260040160405180910390fd5b336001600160a01b03821614610a6057604051636c51fda960e11b81526001600160a01b0382166004820152602401610441565b6001600160401b0384165f9081526007602052604090205461ffff7f0000000000000000000000000000000000000000000000000000000000000000169003610abc576040516305a48e0f60e01b815260040160405180910390fd5b610ac684846112b1565b610b43576001600160401b0384165f81815260076020908152604080832080546001810182559084529282902090920180546001600160a01b0319166001600160a01b03881690811790915591519182527f752ead9f4536ec1319ee3a5a604e1d65eded22e0924251552ba14ae4faa1bbc3910160405180910390a25b50505050565b6001546001600160a01b03163314610b9c5760405162461bcd60e51b815260206004820152601660248201527526bab9ba10313290383937b837b9b2b21037bbb732b960511b6044820152606401610441565b5f8054336001600160a01b0319808316821784556001805490911690556040516001600160a01b0390921692909183917f8be0079c531659141344cd1fd0a4f28419497f9722a3daafe3b4186f6b6457e091a350565b60025460ff1615610c165760405163769dd35360e11b815260040160405180910390fd5b604080515f815260208101909152610c31908390839061044a565b5050565b610c3d61138e565b604080516020810182525f908190526002805460ff1916905590517f4b2974a542484cba2783812ff8033f7fc682cac2fe0905c28c5e27869b3155be9190a1565b6001600160401b0382165f9081526006602052604090205482906001600160a01b031680610cbf57604051630fb532db60e11b815260040160405180910390fd5b336001600160a01b03821614610cf357604051636c51fda960e11b81526001600160a01b0382166004820152602401610441565b8383610cff82826112b1565b610d1c576040516371e8313760e01b815260040160405180910390fd5b60025460ff1615610d405760405163769dd35360e11b815260040160405180910390fd5b6001600160401b0386165f908152600760205260408120905b8154811015610e5257866001600160a01b0316828281548110610d7e57610d7e6117cd565b5f918252602090912001546001600160a01b031603610e4a5781545f908390610da990600190611858565b81548110610db957610db96117cd565b905f5260205f20015f9054906101000a90046001600160a01b0316905080838381548110610de957610de96117cd565b905f5260205f20015f6101000a8154816001600160a01b0302191690836001600160a01b0316021790555082805480610e2457610e246118cc565b5f8281526020902081015f1990810180546001600160a01b031916905501905550610e52565b600101610d59565b506040516001600160a01b03871681526001600160401b038816907ff9bc9d5b5733d904409def43a5ecc888dbdac9a95687780d8fd489d3bb3813fc9060200160405180910390a250505050505050565b600380545f916001600160401b039091169082610ebf836118e0565b82546001600160401b039182166101009390930a928302928202191691909117909155604080518082018252338082525f602080840182815260038054881684526006835292869020945190516001600160601b0316600160a01b026001600160a01b03909116179093555492519081529190921692507f464722b4166576d3dcbba877b999bc35cf911f4eaf434b7eba68fa113951d0bf910160405180910390a2506003546001600160401b031690565b6001600160401b0381165f90815260066020526040812054819081906060906001600160a01b0316610fb657604051630fb532db60e11b815260040160405180910390fd5b6001600160401b0385165f908152600660209081526040808320546007835281842080548351818602810186019094528084526001600160601b03600160a01b84041695946001600160a01b0390931693919283919083018282801561104357602002820191905f5260205f20905b81546001600160a01b03168152600190910190602001808311611025575b5050505050905093509350935093509193509193565b6001600160401b0382165f908152600660205260409020546001600160a01b031661109757604051630fb532db60e11b815260040160405180910390fd5b6001600160401b0382165f9081526006602052604090208054600160a01b90046001600160601b031690829060146110cf838561190a565b92506101000a8154816001600160601b0302191690836001600160601b03160217905550826001600160401b03167fd39ec07f4e209f627a4c427971473820dc129761ba28de8906bd56f57101d4f882848461112b919061190a565b604080516001600160601b0393841681529290911660208301520160405180910390a2505050565b6001600160401b0382165f9081526006602052604090205482906001600160a01b03168061119457604051630fb532db60e11b815260040160405180910390fd5b336001600160a01b038216146111c857604051636c51fda960e11b81526001600160a01b0382166004820152602401610441565b60025460ff16156111ec5760405163769dd35360e11b815260040160405180910390fd5b6001600160401b0384165f818152600660209081526040918290205482516001600160a01b0388168152600160a01b9091046001600160601b0316918101919091527fe8ed5b475a5b5987aa9165e8731bb78043f39eee32ec5a1169a89e27fcd49815910160405180910390a25050506001600160401b03165f90815260066020526040812055565b60405162461bcd60e51b815260206004820152600f60248201526e1b9bdd081a5b5c1b195b595b9d1959608a1b60448201525f90606401610441565b6001600160401b0382165f9081526007602090815260408083208054825181850281018501909352808352849383018282801561131557602002820191905f5260205f20905b81546001600160a01b031681526001909101906020018083116112f7575b509394505f93505050505b815181101561136e57836001600160a01b0316828281518110611345576113456117cd565b60200260200101516001600160a01b03160361136657600192505050611374565b600101611320565b505f9150505b92915050565b61138261138e565b61138b816113e2565b50565b5f546001600160a01b031633146113e05760405162461bcd60e51b815260206004820152601660248201527527b7363c9031b0b63630b1363290313c9037bbb732b960511b6044820152606401610441565b565b336001600160a01b0382160361143a5760405162461bcd60e51b815260206004820152601760248201527f43616e6e6f74207472616e7366657220746f2073656c660000000000000000006044820152606401610441565b600180546001600160a01b0319166001600160a01b038381169182179092555f8054604051929316917fed8889f560326eb138920d842192f0eb3dd22b4f139c87a2c57538e05bae12789190a350565b5f6060820161ffff8616835263ffffffff85166020840152606060408401528084518083526080850191506020860192505f5b818110156114db5783518352602093840193909201916001016114bd565b5090979650505050505050565b80356001600160401b03811681146114fe575f5ffd5b919050565b80356001600160a01b03811681146114fe575f5ffd5b5f5f6040838503121561152a575f5ffd5b611533836114e8565b915061154160208401611503565b90509250929050565b634e487b7160e01b5f52604160045260245ffd5b5f5f5f60608486031215611570575f5ffd5b8335925061158060208501611503565b915060408401356001600160401b0381111561159a575f5ffd5b8401601f810186136115aa575f5ffd5b80356001600160401b038111156115c3576115c361154a565b8060051b604051601f19603f83011681018181106001600160401b03821117156115ef576115ef61154a565b60405291825260208184018101929081018984111561160c575f5ffd5b6020850194505b8385101561162f57843580825260209586019590935001611613565b50809450505050509250925092565b803563ffffffff811681146114fe575f5ffd5b5f5f5f5f5f60a08688031215611665575f5ffd5b85359450611675602087016114e8565b9350604086013561ffff8116811461168b575f5ffd5b92506116996060870161163e565b91506116a76080870161163e565b90509295509295909350565b5f5f604083850312156116c4575f5ffd5b8235915061154160208401611503565b5f602082840312156116e4575f5ffd5b6116ed826114e8565b9392505050565b6001600160601b03851681526001600160401b0384166020808301919091526001600160a01b038416604083015260806060830181905283519083018190525f9184019060a0840190835b818110156117665783516001600160a01b031683526020938401939092019160010161173f565b509098975050505050505050565b5f5f60408385031215611785575f5ffd5b61178e836114e8565b915060208301356001600160601b03811681146117a9575f5ffd5b809150509250929050565b5f602082840312156117c4575f5ffd5b6116ed82611503565b634e487b7160e01b5f52603260045260245ffd5b5f60408201848352604060208401528084518083526060850191506020860192505f5b81811015611822578351835260209384019390920191600101611804565b50909695505050505050565b5f82518060208501845e5f920191825250919050565b634e487b7160e01b5f52601160045260245ffd5b8181038181111561137457611374611844565b808202811582820484141761137457611374611844565b8082018082111561137457611374611844565b6001600160601b03828116828216039081111561137457611374611844565b5f600182016118c5576118c5611844565b5060010190565b634e487b7160e01b5f52603160045260245ffd5b5f6001600160401b0382166001600160401b03810361190157611901611844565b60010192915050565b6001600160601b0381811683821601908111156113745761137461184456fea26469706673582212200c79815c5fa0376b5fdfb5bb4a0fc7a4ebdd813857787cc9b5a74c86692eea3164736f6c634300081c0033","linkReferences":{}},"methodIdentifiers":{"BASE_FEE()":"3d18651e","GAS_PRICE_LINK()":"a410347f","MAX_CONSUMERS()":"64d51a2a","acceptOwnership()":"79ba5097","acceptSubscriptionOwnerTransfer(uint64)":"82359740","addConsumer(uint64,address)":"7341c10c","cancelSubscription(uint64,address)":"d7ae1d30","consumerIsAdded(uint64,address)":"ed5eb06d","createSubscription()":"a21a23e4","fulfillRandomWords(uint256,address)":"808974ff","fulfillRandomWordsWithOverride(uint256,address,uint256[])":"08e3898e","fundSubscription(uint64,uint96)":"afc69b53","getConfig()":"c3f909d4","getFallbackWeiPerUnitLink()":"356dac71","getFeeConfig()":"5fbbc0d2","getRequestConfig()":"00012291","getSubscription(uint64)":"a47c7696","owner()":"8da5cb5b","pendingRequestExists(uint64)":"e82ad7d4","removeConsumer(uint64,address)":"9f87fad7","requestRandomWords(bytes32,uint64,uint16,uint32,uint32)":"5d3b1d30","requestSubscriptionOwnerTransfer(uint64,address)":"04c357cb","setConfig()":"8b673e7a","transferOwnership(address)":"f2fde38b"},"id":5}